{
  "address": "0x082551a331e91c323B4C4C1d6BdED75345Cd8f46",
  "abi": [
    {
      "inputs": [],
      "stateMutability": "nonpayable",
      "type": "constructor"
    },
    {
      "anonymous": false,
      "inputs": [
        {
          "indexed": true,
          "internalType": "address",
          "name": "owner",
          "type": "address"
        },
        {
          "indexed": true,
          "internalType": "address",
          "name": "approved",
          "type": "address"
        },
        {
          "indexed": true,
          "internalType": "uint256",
          "name": "tokenId",
          "type": "uint256"
        }
      ],
      "name": "Approval",
      "type": "event"
    },
    {
      "anonymous": false,
      "inputs": [
        {
          "indexed": true,
          "internalType": "address",
          "name": "owner",
          "type": "address"
        },
        {
          "indexed": true,
          "internalType": "address",
          "name": "operator",
          "type": "address"
        },
        {
          "indexed": false,
          "internalType": "bool",
          "name": "approved",
          "type": "bool"
        }
      ],
      "name": "ApprovalForAll",
      "type": "event"
    },
    {
      "anonymous": false,
      "inputs": [
        {
          "indexed": true,
          "internalType": "address",
          "name": "previousOwner",
          "type": "address"
        },
        {
          "indexed": true,
          "internalType": "address",
          "name": "newOwner",
          "type": "address"
        }
      ],
      "name": "OwnershipTransferred",
      "type": "event"
    },
    {
      "anonymous": false,
      "inputs": [
        {
          "indexed": true,
          "internalType": "address",
          "name": "from",
          "type": "address"
        },
        {
          "indexed": true,
          "internalType": "address",
          "name": "to",
          "type": "address"
        },
        {
          "indexed": true,
          "internalType": "uint256",
          "name": "tokenId",
          "type": "uint256"
        }
      ],
      "name": "Transfer",
      "type": "event"
    },
    {
      "inputs": [],
      "name": "MAX_TOKENS",
      "outputs": [
        {
          "internalType": "uint256",
          "name": "",
          "type": "uint256"
        }
      ],
      "stateMutability": "view",
      "type": "function"
    },
    {
      "inputs": [
        {
          "internalType": "address",
          "name": "nft_owner",
          "type": "address"
        }
      ],
      "name": "Verifier",
      "outputs": [
        {
          "internalType": "uint256",
          "name": "",
          "type": "uint256"
        },
        {
          "internalType": "bool",
          "name": "",
          "type": "bool"
        }
      ],
      "stateMutability": "view",
      "type": "function"
    },
    {
      "inputs": [
        {
          "internalType": "address",
          "name": "to",
          "type": "address"
        },
        {
          "internalType": "uint256",
          "name": "tokenId",
          "type": "uint256"
        }
      ],
      "name": "approve",
      "outputs": [],
      "stateMutability": "nonpayable",
      "type": "function"
    },
    {
      "inputs": [
        {
          "internalType": "address",
          "name": "owner",
          "type": "address"
        }
      ],
      "name": "balanceOf",
      "outputs": [
        {
          "internalType": "uint256",
          "name": "",
          "type": "uint256"
        }
      ],
      "stateMutability": "view",
      "type": "function"
    },
    {
      "inputs": [],
      "name": "baseUri",
      "outputs": [
        {
          "internalType": "string",
          "name": "",
          "type": "string"
        }
      ],
      "stateMutability": "view",
      "type": "function"
    },
    {
      "inputs": [
        {
          "internalType": "uint256",
          "name": "tokenId",
          "type": "uint256"
        }
      ],
      "name": "getApproved",
      "outputs": [
        {
          "internalType": "address",
          "name": "",
          "type": "address"
        }
      ],
      "stateMutability": "view",
      "type": "function"
    },
    {
      "inputs": [],
      "name": "getTokenId",
      "outputs": [
        {
          "internalType": "uint256",
          "name": "",
          "type": "uint256"
        }
      ],
      "stateMutability": "view",
      "type": "function"
    },
    {
      "inputs": [],
      "name": "getTotalSupply",
      "outputs": [
        {
          "internalType": "uint256",
          "name": "",
          "type": "uint256"
        }
      ],
      "stateMutability": "view",
      "type": "function"
    },
    {
      "inputs": [],
      "name": "getVerifiedstatus",
      "outputs": [
        {
          "internalType": "bool",
          "name": "",
          "type": "bool"
        }
      ],
      "stateMutability": "view",
      "type": "function"
    },
    {
      "inputs": [],
      "name": "getchk",
      "outputs": [
        {
          "internalType": "uint256",
          "name": "",
          "type": "uint256"
        }
      ],
      "stateMutability": "view",
      "type": "function"
    },
    {
      "inputs": [
        {
          "internalType": "address",
          "name": "owner",
          "type": "address"
        },
        {
          "internalType": "address",
          "name": "operator",
          "type": "address"
        }
      ],
      "name": "isApprovedForAll",
      "outputs": [
        {
          "internalType": "bool",
          "name": "",
          "type": "bool"
        }
      ],
      "stateMutability": "view",
      "type": "function"
    },
    {
      "inputs": [],
      "name": "isSaleActive",
      "outputs": [
        {
          "internalType": "bool",
          "name": "",
          "type": "bool"
        }
      ],
      "stateMutability": "view",
      "type": "function"
    },
    {
      "inputs": [],
      "name": "mint",
      "outputs": [
        {
          "internalType": "uint256",
          "name": "",
          "type": "uint256"
        }
      ],
      "stateMutability": "payable",
      "type": "function"
    },
    {
      "inputs": [],
      "name": "name",
      "outputs": [
        {
          "internalType": "string",
          "name": "",
          "type": "string"
        }
      ],
      "stateMutability": "view",
      "type": "function"
    },
    {
      "inputs": [],
      "name": "owner",
      "outputs": [
        {
          "internalType": "address",
          "name": "",
          "type": "address"
        }
      ],
      "stateMutability": "view",
      "type": "function"
    },
    {
      "inputs": [
        {
          "internalType": "uint256",
          "name": "tokenId",
          "type": "uint256"
        }
      ],
      "name": "ownerOf",
      "outputs": [
        {
          "internalType": "address",
          "name": "",
          "type": "address"
        }
      ],
      "stateMutability": "view",
      "type": "function"
    },
    {
      "inputs": [],
      "name": "renounceOwnership",
      "outputs": [],
      "stateMutability": "nonpayable",
      "type": "function"
    },
    {
      "inputs": [
        {
          "internalType": "address",
          "name": "from",
          "type": "address"
        },
        {
          "internalType": "address",
          "name": "to",
          "type": "address"
        },
        {
          "internalType": "uint256",
          "name": "tokenId",
          "type": "uint256"
        }
      ],
      "name": "safeTransferFrom",
      "outputs": [],
      "stateMutability": "nonpayable",
      "type": "function"
    },
    {
      "inputs": [
        {
          "internalType": "address",
          "name": "from",
          "type": "address"
        },
        {
          "internalType": "address",
          "name": "to",
          "type": "address"
        },
        {
          "internalType": "uint256",
          "name": "tokenId",
          "type": "uint256"
        },
        {
          "internalType": "bytes",
          "name": "data",
          "type": "bytes"
        }
      ],
      "name": "safeTransferFrom",
      "outputs": [],
      "stateMutability": "nonpayable",
      "type": "function"
    },
    {
      "inputs": [
        {
          "internalType": "address",
          "name": "operator",
          "type": "address"
        },
        {
          "internalType": "bool",
          "name": "approved",
          "type": "bool"
        }
      ],
      "name": "setApprovalForAll",
      "outputs": [],
      "stateMutability": "nonpayable",
      "type": "function"
    },
    {
      "inputs": [
        {
          "internalType": "bytes4",
          "name": "interfaceId",
          "type": "bytes4"
        }
      ],
      "name": "supportsInterface",
      "outputs": [
        {
          "internalType": "bool",
          "name": "",
          "type": "bool"
        }
      ],
      "stateMutability": "view",
      "type": "function"
    },
    {
      "inputs": [],
      "name": "symbol",
      "outputs": [
        {
          "internalType": "string",
          "name": "",
          "type": "string"
        }
      ],
      "stateMutability": "view",
      "type": "function"
    },
    {
      "inputs": [],
      "name": "tokenId",
      "outputs": [
        {
          "internalType": "uint256",
          "name": "",
          "type": "uint256"
        }
      ],
      "stateMutability": "view",
      "type": "function"
    },
    {
      "inputs": [
        {
          "internalType": "uint256",
          "name": "tkenId",
          "type": "uint256"
        }
      ],
      "name": "tokenURI",
      "outputs": [
        {
          "internalType": "string",
          "name": "",
          "type": "string"
        }
      ],
      "stateMutability": "view",
      "type": "function"
    },
    {
      "inputs": [],
      "name": "totalSupply",
      "outputs": [
        {
          "internalType": "uint256",
          "name": "",
          "type": "uint256"
        }
      ],
      "stateMutability": "view",
      "type": "function"
    },
    {
      "inputs": [
        {
          "internalType": "address",
          "name": "from",
          "type": "address"
        },
        {
          "internalType": "address",
          "name": "to",
          "type": "address"
        },
        {
          "internalType": "uint256",
          "name": "tokenId",
          "type": "uint256"
        }
      ],
      "name": "transferFrom",
      "outputs": [],
      "stateMutability": "nonpayable",
      "type": "function"
    },
    {
      "inputs": [
        {
          "internalType": "address",
          "name": "newOwner",
          "type": "address"
        }
      ],
      "name": "transferOwnership",
      "outputs": [],
      "stateMutability": "nonpayable",
      "type": "function"
    }
  ],
  "transactionHash": "0x767a7725eb3eec89f3211d152e1f3320bb5f0d77fff3e7d38d9d219fce3efb7a",
  "args": [],
  "numDeployments": 1,
  "solcInputHash": "d17af944499fc2d8788860ed308ade8a",
  "bytecode": "0x608060405260006007556001600960006101000a81548160ff0219169083151502179055506000600e553480156200003657600080fd5b506040518060400160405280600681526020017f442d4155544800000000000000000000000000000000000000000000000000008152506040518060400160405280600381526020017f44415500000000000000000000000000000000000000000000000000000000008152508160009080519060200190620000bb92919062000215565b508060019080519060200190620000d492919062000215565b505050620000f7620000eb6200014760201b60201c565b6200014f60201b60201c565b6040518060800160405280605181526020016200360060519139600c90805190602001906200012892919062000215565b506000600f819055506000600a819055506000600d819055506200032a565b600033905090565b6000600660009054906101000a900473ffffffffffffffffffffffffffffffffffffffff16905081600660006101000a81548173ffffffffffffffffffffffffffffffffffffffff021916908373ffffffffffffffffffffffffffffffffffffffff1602179055508173ffffffffffffffffffffffffffffffffffffffff168173ffffffffffffffffffffffffffffffffffffffff167f8be0079c531659141344cd1fd0a4f28419497f9722a3daafe3b4186f6b6457e060405160405180910390a35050565b8280546200022390620002f4565b90600052602060002090601f01602090048101928262000247576000855562000293565b82601f106200026257805160ff191683800117855562000293565b8280016001018555821562000293579182015b828111156200029257825182559160200191906001019062000275565b5b509050620002a29190620002a6565b5090565b5b80821115620002c1576000816000905550600101620002a7565b5090565b7f4e487b7100000000000000000000000000000000000000000000000000000000600052602260045260246000fd5b600060028204905060018216806200030d57607f821691505b60208210811415620003245762000323620002c5565b5b50919050565b6132c6806200033a6000396000f3fe60806040526004361061019c5760003560e01c80636e9ea4bb116100ec578063b88d4fde1161008a578063c87b56dd11610064578063c87b56dd146105ae578063e985e9c5146105eb578063f2fde38b14610628578063f47c84c5146106515761019c565b8063b88d4fde1461052f578063c4e41b2214610558578063c7f78feb146105835761019c565b80638da5cb5b116100c65780638da5cb5b1461048557806395d89b41146104b05780639abc8320146104db578063a22cb465146105065761019c565b80636e9ea4bb1461040657806370a0823114610431578063715018a61461046e5761019c565b806317d70f7c1161015957806342842e0e1161013357806342842e0e146103375780635183c05014610360578063564566a81461039e5780636352211e146103c95761019c565b806317d70f7c146102b857806318160ddd146102e357806323b872dd1461030e5761019c565b8063010a38f5146101a157806301ffc9a7146101cc57806306fdde0314610209578063081812fc14610234578063095ea7b3146102715780631249c58b1461029a575b600080fd5b3480156101ad57600080fd5b506101b661067c565b6040516101c391906120a4565b60405180910390f35b3480156101d857600080fd5b506101f360048036038101906101ee919061212b565b610686565b6040516102009190612173565b60405180910390f35b34801561021557600080fd5b5061021e610768565b60405161022b9190612227565b60405180910390f35b34801561024057600080fd5b5061025b60048036038101906102569190612275565b6107fa565b60405161026891906122e3565b60405180910390f35b34801561027d57600080fd5b506102986004803603810190610293919061232a565b610840565b005b6102a2610958565b6040516102af91906120a4565b60405180910390f35b3480156102c457600080fd5b506102cd610c23565b6040516102da91906120a4565b60405180910390f35b3480156102ef57600080fd5b506102f8610c29565b60405161030591906120a4565b60405180910390f35b34801561031a57600080fd5b506103356004803603810190610330919061236a565b610c2f565b005b34801561034357600080fd5b5061035e6004803603810190610359919061236a565b610c8f565b005b34801561036c57600080fd5b50610387600480360381019061038291906123bd565b610caf565b6040516103959291906123ea565b60405180910390f35b3480156103aa57600080fd5b506103b3610d53565b6040516103c09190612173565b60405180910390f35b3480156103d557600080fd5b506103f060048036038101906103eb9190612275565b610d66565b6040516103fd91906122e3565b60405180910390f35b34801561041257600080fd5b5061041b610e18565b6040516104289190612173565b60405180910390f35b34801561043d57600080fd5b50610458600480360381019061045391906123bd565b610e6c565b60405161046591906120a4565b60405180910390f35b34801561047a57600080fd5b50610483610f24565b005b34801561049157600080fd5b5061049a610f38565b6040516104a791906122e3565b60405180910390f35b3480156104bc57600080fd5b506104c5610f62565b6040516104d29190612227565b60405180910390f35b3480156104e757600080fd5b506104f0610ff4565b6040516104fd9190612227565b60405180910390f35b34801561051257600080fd5b5061052d6004803603810190610528919061243f565b611082565b005b34801561053b57600080fd5b50610556600480360381019061055191906125b4565b611098565b005b34801561056457600080fd5b5061056d6110fa565b60405161057a91906120a4565b60405180910390f35b34801561058f57600080fd5b50610598611104565b6040516105a591906120a4565b60405180910390f35b3480156105ba57600080fd5b506105d560048036038101906105d09190612275565b61110e565b6040516105e29190612227565b60405180910390f35b3480156105f757600080fd5b50610612600480360381019061060d9190612637565b611178565b60405161061f9190612173565b60405180910390f35b34801561063457600080fd5b5061064f600480360381019061064a91906123bd565b61120c565b005b34801561065d57600080fd5b50610666611290565b60405161067391906120a4565b60405180910390f35b6000600f54905090565b60007f80ac58cd000000000000000000000000000000000000000000000000000000007bffffffffffffffffffffffffffffffffffffffffffffffffffffffff1916827bffffffffffffffffffffffffffffffffffffffffffffffffffffffff1916148061075157507f5b5e139f000000000000000000000000000000000000000000000000000000007bffffffffffffffffffffffffffffffffffffffffffffffffffffffff1916827bffffffffffffffffffffffffffffffffffffffffffffffffffffffff1916145b80610761575061076082611296565b5b9050919050565b606060008054610777906126a6565b80601f01602080910402602001604051908101604052809291908181526020018280546107a3906126a6565b80156107f05780601f106107c5576101008083540402835291602001916107f0565b820191906000526020600020905b8154815290600101906020018083116107d357829003601f168201915b5050505050905090565b600061080582611300565b6004600083815260200190815260200160002060009054906101000a900473ffffffffffffffffffffffffffffffffffffffff169050919050565b600061084b82610d66565b90508073ffffffffffffffffffffffffffffffffffffffff168373ffffffffffffffffffffffffffffffffffffffff1614156108bc576040517f08c379a00000000000000000000000000000000000000000000000000000000081526004016108b39061274a565b60405180910390fd5b8073ffffffffffffffffffffffffffffffffffffffff166108db61134b565b73ffffffffffffffffffffffffffffffffffffffff16148061090a57506109098161090461134b565b611178565b5b610949576040517f08c379a0000000000000000000000000000000000000000000000000000000008152600401610940906127dc565b60405180910390fd5b6109538383611353565b505050565b6000600860003373ffffffffffffffffffffffffffffffffffffffff1673ffffffffffffffffffffffffffffffffffffffff16815260200190815260200160002060009054906101000a900460ff16156109e7576040517f08c379a00000000000000000000000000000000000000000000000000000000081526004016109de90612848565b60405180910390fd5b600960009054906101000a900460ff16610a36576040517f08c379a0000000000000000000000000000000000000000000000000000000008152600401610a2d906128b4565b60405180910390fd5b6000600b60003373ffffffffffffffffffffffffffffffffffffffff1673ffffffffffffffffffffffffffffffffffffffff1681526020019081526020016000205414610ab8576040517f08c379a0000000000000000000000000000000000000000000000000000000008152600401610aaf90612920565b60405180910390fd5b6000600a54905061271060075482610ad0919061296f565b1115610b11576040517f08c379a0000000000000000000000000000000000000000000000000000000008152600401610b0890612a11565b60405180910390fd5b6001600f54610b20919061296f565b600f81905550610b3233600f5461140c565b60076000815480929190610b4590612a31565b9190505550600754600b60003373ffffffffffffffffffffffffffffffffffffffff1673ffffffffffffffffffffffffffffffffffffffff1681526020019081526020016000206000828254610b9b919061296f565b92505081905550600a6000815480929190610bb590612a31565b91905055506001600e819055506001600860003373ffffffffffffffffffffffffffffffffffffffff1673ffffffffffffffffffffffffffffffffffffffff16815260200190815260200160002060006101000a81548160ff021916908315150217905550600f5491505090565b600f5481565b600a5481565b610c40610c3a61134b565b8261142a565b610c7f576040517f08c379a0000000000000000000000000000000000000000000000000000000008152600401610c7690612aec565b60405180910390fd5b610c8a8383836114bf565b505050565b610caa83838360405180602001604052806000815250611098565b505050565b6000806000806000905060005b600a548111158015610ccf5750600a5482105b15610d43578180610cdf90612a31565b925050610ceb82610d66565b92508273ffffffffffffffffffffffffffffffffffffffff168673ffffffffffffffffffffffffffffffffffffffff161415610d305781600194509450505050610d4e565b8080610d3b90612a31565b915050610cbc565b600080945094505050505b915091565b600960009054906101000a900460ff1681565b6000806002600084815260200190815260200160002060009054906101000a900473ffffffffffffffffffffffffffffffffffffffff169050600073ffffffffffffffffffffffffffffffffffffffff168173ffffffffffffffffffffffffffffffffffffffff161415610e0f576040517f08c379a0000000000000000000000000000000000000000000000000000000008152600401610e0690612b58565b60405180910390fd5b80915050919050565b6000600860003373ffffffffffffffffffffffffffffffffffffffff1673ffffffffffffffffffffffffffffffffffffffff16815260200190815260200160002060009054906101000a900460ff16905090565b60008073ffffffffffffffffffffffffffffffffffffffff168273ffffffffffffffffffffffffffffffffffffffff161415610edd576040517f08c379a0000000000000000000000000000000000000000000000000000000008152600401610ed490612bea565b60405180910390fd5b600360008373ffffffffffffffffffffffffffffffffffffffff1673ffffffffffffffffffffffffffffffffffffffff168152602001908152602001600020549050919050565b610f2c611726565b610f3660006117a4565b565b6000600660009054906101000a900473ffffffffffffffffffffffffffffffffffffffff16905090565b606060018054610f71906126a6565b80601f0160208091040260200160405190810160405280929190818152602001828054610f9d906126a6565b8015610fea5780601f10610fbf57610100808354040283529160200191610fea565b820191906000526020600020905b815481529060010190602001808311610fcd57829003601f168201915b5050505050905090565b600c8054611001906126a6565b80601f016020809104026020016040519081016040528092919081815260200182805461102d906126a6565b801561107a5780601f1061104f5761010080835404028352916020019161107a565b820191906000526020600020905b81548152906001019060200180831161105d57829003601f168201915b505050505081565b61109461108d61134b565b838361186a565b5050565b6110a96110a361134b565b8361142a565b6110e8576040517f08c379a00000000000000000000000000000000000000000000000000000000081526004016110df90612aec565b60405180910390fd5b6110f4848484846119d7565b50505050565b6000600a54905090565b6000600d54905090565b606061111982611300565b6000611123611a33565b905060008151116111435760405180602001604052806000815250611170565b8061114f600f54611ac5565b604051602001611160929190612c92565b6040516020818303038152906040525b915050919050565b6000600560008473ffffffffffffffffffffffffffffffffffffffff1673ffffffffffffffffffffffffffffffffffffffff16815260200190815260200160002060008373ffffffffffffffffffffffffffffffffffffffff1673ffffffffffffffffffffffffffffffffffffffff16815260200190815260200160002060009054906101000a900460ff16905092915050565b611214611726565b600073ffffffffffffffffffffffffffffffffffffffff168173ffffffffffffffffffffffffffffffffffffffff161415611284576040517f08c379a000000000000000000000000000000000000000000000000000000000815260040161127b90612d33565b60405180910390fd5b61128d816117a4565b50565b61271081565b60007f01ffc9a7000000000000000000000000000000000000000000000000000000007bffffffffffffffffffffffffffffffffffffffffffffffffffffffff1916827bffffffffffffffffffffffffffffffffffffffffffffffffffffffff1916149050919050565b61130981611c26565b611348576040517f08c379a000000000000000000000000000000000000000000000000000000000815260040161133f90612b58565b60405180910390fd5b50565b600033905090565b816004600083815260200190815260200160002060006101000a81548173ffffffffffffffffffffffffffffffffffffffff021916908373ffffffffffffffffffffffffffffffffffffffff160217905550808273ffffffffffffffffffffffffffffffffffffffff166113c683610d66565b73ffffffffffffffffffffffffffffffffffffffff167f8c5be1e5ebec7d5bd14f71427d1e84f3dd0314c0f7b2291e5b200ac8c7c3b92560405160405180910390a45050565b611426828260405180602001604052806000815250611c92565b5050565b60008061143683610d66565b90508073ffffffffffffffffffffffffffffffffffffffff168473ffffffffffffffffffffffffffffffffffffffff16148061147857506114778185611178565b5b806114b657508373ffffffffffffffffffffffffffffffffffffffff1661149e846107fa565b73ffffffffffffffffffffffffffffffffffffffff16145b91505092915050565b8273ffffffffffffffffffffffffffffffffffffffff166114df82610d66565b73ffffffffffffffffffffffffffffffffffffffff1614611535576040517f08c379a000000000000000000000000000000000000000000000000000000000815260040161152c90612dc5565b60405180910390fd5b600073ffffffffffffffffffffffffffffffffffffffff168273ffffffffffffffffffffffffffffffffffffffff1614156115a5576040517f08c379a000000000000000000000000000000000000000000000000000000000815260040161159c90612e57565b60405180910390fd5b6115b0838383611ced565b6115bb600082611353565b6001600360008573ffffffffffffffffffffffffffffffffffffffff1673ffffffffffffffffffffffffffffffffffffffff168152602001908152602001600020600082825461160b9190612e77565b925050819055506001600360008473ffffffffffffffffffffffffffffffffffffffff1673ffffffffffffffffffffffffffffffffffffffff1681526020019081526020016000206000828254611662919061296f565b92505081905550816002600083815260200190815260200160002060006101000a81548173ffffffffffffffffffffffffffffffffffffffff021916908373ffffffffffffffffffffffffffffffffffffffff160217905550808273ffffffffffffffffffffffffffffffffffffffff168473ffffffffffffffffffffffffffffffffffffffff167fddf252ad1be2c89b69c2b068fc378daa952ba7f163c4a11628f55a4df523b3ef60405160405180910390a4611721838383611cf2565b505050565b61172e61134b565b73ffffffffffffffffffffffffffffffffffffffff1661174c610f38565b73ffffffffffffffffffffffffffffffffffffffff16146117a2576040517f08c379a000000000000000000000000000000000000000000000000000000000815260040161179990612ef7565b60405180910390fd5b565b6000600660009054906101000a900473ffffffffffffffffffffffffffffffffffffffff16905081600660006101000a81548173ffffffffffffffffffffffffffffffffffffffff021916908373ffffffffffffffffffffffffffffffffffffffff1602179055508173ffffffffffffffffffffffffffffffffffffffff168173ffffffffffffffffffffffffffffffffffffffff167f8be0079c531659141344cd1fd0a4f28419497f9722a3daafe3b4186f6b6457e060405160405180910390a35050565b8173ffffffffffffffffffffffffffffffffffffffff168373ffffffffffffffffffffffffffffffffffffffff1614156118d9576040517f08c379a00000000000000000000000000000000000000000000000000000000081526004016118d090612f63565b60405180910390fd5b80600560008573ffffffffffffffffffffffffffffffffffffffff1673ffffffffffffffffffffffffffffffffffffffff16815260200190815260200160002060008473ffffffffffffffffffffffffffffffffffffffff1673ffffffffffffffffffffffffffffffffffffffff16815260200190815260200160002060006101000a81548160ff0219169083151502179055508173ffffffffffffffffffffffffffffffffffffffff168373ffffffffffffffffffffffffffffffffffffffff167f17307eab39ab6107e8899845ad3d59bd9653f200f220920489ca2b5937696c31836040516119ca9190612173565b60405180910390a3505050565b6119e28484846114bf565b6119ee84848484611cf7565b611a2d576040517f08c379a0000000000000000000000000000000000000000000000000000000008152600401611a2490612ff5565b60405180910390fd5b50505050565b6060600c8054611a42906126a6565b80601f0160208091040260200160405190810160405280929190818152602001828054611a6e906126a6565b8015611abb5780601f10611a9057610100808354040283529160200191611abb565b820191906000526020600020905b815481529060010190602001808311611a9e57829003601f168201915b5050505050905090565b60606000821415611b0d576040518060400160405280600181526020017f30000000000000000000000000000000000000000000000000000000000000008152509050611c21565b600082905060005b60008214611b3f578080611b2890612a31565b915050600a82611b389190613044565b9150611b15565b60008167ffffffffffffffff811115611b5b57611b5a612489565b5b6040519080825280601f01601f191660200182016040528015611b8d5781602001600182028036833780820191505090505b5090505b60008514611c1a57600182611ba69190612e77565b9150600a85611bb59190613075565b6030611bc1919061296f565b60f81b818381518110611bd757611bd66130a6565b5b60200101907effffffffffffffffffffffffffffffffffffffffffffffffffffffffffffff1916908160001a905350600a85611c139190613044565b9450611b91565b8093505050505b919050565b60008073ffffffffffffffffffffffffffffffffffffffff166002600084815260200190815260200160002060009054906101000a900473ffffffffffffffffffffffffffffffffffffffff1673ffffffffffffffffffffffffffffffffffffffff1614159050919050565b611c9c8383611e8e565b611ca96000848484611cf7565b611ce8576040517f08c379a0000000000000000000000000000000000000000000000000000000008152600401611cdf90612ff5565b60405180910390fd5b505050565b505050565b505050565b6000611d188473ffffffffffffffffffffffffffffffffffffffff16612068565b15611e81578373ffffffffffffffffffffffffffffffffffffffff1663150b7a02611d4161134b565b8786866040518563ffffffff1660e01b8152600401611d63949392919061312a565b602060405180830381600087803b158015611d7d57600080fd5b505af1925050508015611dae57506040513d601f19601f82011682018060405250810190611dab919061318b565b60015b611e31573d8060008114611dde576040519150601f19603f3d011682016040523d82523d6000602084013e611de3565b606091505b50600081511415611e29576040517f08c379a0000000000000000000000000000000000000000000000000000000008152600401611e2090612ff5565b60405180910390fd5b805181602001fd5b63150b7a0260e01b7bffffffffffffffffffffffffffffffffffffffffffffffffffffffff1916817bffffffffffffffffffffffffffffffffffffffffffffffffffffffff191614915050611e86565b600190505b949350505050565b600073ffffffffffffffffffffffffffffffffffffffff168273ffffffffffffffffffffffffffffffffffffffff161415611efe576040517f08c379a0000000000000000000000000000000000000000000000000000000008152600401611ef590613204565b60405180910390fd5b611f0781611c26565b15611f47576040517f08c379a0000000000000000000000000000000000000000000000000000000008152600401611f3e90613270565b60405180910390fd5b611f5360008383611ced565b6001600360008473ffffffffffffffffffffffffffffffffffffffff1673ffffffffffffffffffffffffffffffffffffffff1681526020019081526020016000206000828254611fa3919061296f565b92505081905550816002600083815260200190815260200160002060006101000a81548173ffffffffffffffffffffffffffffffffffffffff021916908373ffffffffffffffffffffffffffffffffffffffff160217905550808273ffffffffffffffffffffffffffffffffffffffff16600073ffffffffffffffffffffffffffffffffffffffff167fddf252ad1be2c89b69c2b068fc378daa952ba7f163c4a11628f55a4df523b3ef60405160405180910390a461206460008383611cf2565b5050565b6000808273ffffffffffffffffffffffffffffffffffffffff163b119050919050565b6000819050919050565b61209e8161208b565b82525050565b60006020820190506120b96000830184612095565b92915050565b6000604051905090565b600080fd5b600080fd5b60007fffffffff0000000000000000000000000000000000000000000000000000000082169050919050565b612108816120d3565b811461211357600080fd5b50565b600081359050612125816120ff565b92915050565b600060208284031215612141576121406120c9565b5b600061214f84828501612116565b91505092915050565b60008115159050919050565b61216d81612158565b82525050565b60006020820190506121886000830184612164565b92915050565b600081519050919050565b600082825260208201905092915050565b60005b838110156121c85780820151818401526020810190506121ad565b838111156121d7576000848401525b50505050565b6000601f19601f8301169050919050565b60006121f98261218e565b6122038185612199565b93506122138185602086016121aa565b61221c816121dd565b840191505092915050565b6000602082019050818103600083015261224181846121ee565b905092915050565b6122528161208b565b811461225d57600080fd5b50565b60008135905061226f81612249565b92915050565b60006020828403121561228b5761228a6120c9565b5b600061229984828501612260565b91505092915050565b600073ffffffffffffffffffffffffffffffffffffffff82169050919050565b60006122cd826122a2565b9050919050565b6122dd816122c2565b82525050565b60006020820190506122f860008301846122d4565b92915050565b612307816122c2565b811461231257600080fd5b50565b600081359050612324816122fe565b92915050565b60008060408385031215612341576123406120c9565b5b600061234f85828601612315565b925050602061236085828601612260565b9150509250929050565b600080600060608486031215612383576123826120c9565b5b600061239186828701612315565b93505060206123a286828701612315565b92505060406123b386828701612260565b9150509250925092565b6000602082840312156123d3576123d26120c9565b5b60006123e184828501612315565b91505092915050565b60006040820190506123ff6000830185612095565b61240c6020830184612164565b9392505050565b61241c81612158565b811461242757600080fd5b50565b60008135905061243981612413565b92915050565b60008060408385031215612456576124556120c9565b5b600061246485828601612315565b92505060206124758582860161242a565b9150509250929050565b600080fd5b600080fd5b7f4e487b7100000000000000000000000000000000000000000000000000000000600052604160045260246000fd5b6124c1826121dd565b810181811067ffffffffffffffff821117156124e0576124df612489565b5b80604052505050565b60006124f36120bf565b90506124ff82826124b8565b919050565b600067ffffffffffffffff82111561251f5761251e612489565b5b612528826121dd565b9050602081019050919050565b82818337600083830152505050565b600061255761255284612504565b6124e9565b90508281526020810184848401111561257357612572612484565b5b61257e848285612535565b509392505050565b600082601f83011261259b5761259a61247f565b5b81356125ab848260208601612544565b91505092915050565b600080600080608085870312156125ce576125cd6120c9565b5b60006125dc87828801612315565b94505060206125ed87828801612315565b93505060406125fe87828801612260565b925050606085013567ffffffffffffffff81111561261f5761261e6120ce565b5b61262b87828801612586565b91505092959194509250565b6000806040838503121561264e5761264d6120c9565b5b600061265c85828601612315565b925050602061266d85828601612315565b9150509250929050565b7f4e487b7100000000000000000000000000000000000000000000000000000000600052602260045260246000fd5b600060028204905060018216806126be57607f821691505b602082108114156126d2576126d1612677565b5b50919050565b7f4552433732313a20617070726f76616c20746f2063757272656e74206f776e6560008201527f7200000000000000000000000000000000000000000000000000000000000000602082015250565b6000612734602183612199565b915061273f826126d8565b604082019050919050565b6000602082019050818103600083015261276381612727565b9050919050565b7f4552433732313a20617070726f76652063616c6c6572206973206e6f7420746f60008201527f6b656e206f776e6572206e6f7220617070726f76656420666f7220616c6c0000602082015250565b60006127c6603e83612199565b91506127d18261276a565b604082019050919050565b600060208201905081810360008301526127f5816127b9565b9050919050565b7f416c726561647920766572696669656400000000000000000000000000000000600082015250565b6000612832601083612199565b915061283d826127fc565b602082019050919050565b6000602082019050818103600083015261286181612825565b9050919050565b7f5468652073616c65206973207061757365642e00000000000000000000000000600082015250565b600061289e601383612199565b91506128a982612868565b602082019050919050565b600060208201905081810360008301526128cd81612891565b9050919050565b7f596f752063616e6e6f74206d696e742074686174206d616e7920746f74616c2e600082015250565b600061290a602083612199565b9150612915826128d4565b602082019050919050565b60006020820190508181036000830152612939816128fd565b9050919050565b7f4e487b7100000000000000000000000000000000000000000000000000000000600052601160045260246000fd5b600061297a8261208b565b91506129858361208b565b9250827fffffffffffffffffffffffffffffffffffffffffffffffffffffffffffffffff038211156129ba576129b9612940565b5b828201905092915050565b7f4578636565647320746f74616c20737570706c792e0000000000000000000000600082015250565b60006129fb601583612199565b9150612a06826129c5565b602082019050919050565b60006020820190508181036000830152612a2a816129ee565b9050919050565b6000612a3c8261208b565b91507fffffffffffffffffffffffffffffffffffffffffffffffffffffffffffffffff821415612a6f57612a6e612940565b5b600182019050919050565b7f4552433732313a2063616c6c6572206973206e6f7420746f6b656e206f776e6560008201527f72206e6f7220617070726f766564000000000000000000000000000000000000602082015250565b6000612ad6602e83612199565b9150612ae182612a7a565b604082019050919050565b60006020820190508181036000830152612b0581612ac9565b9050919050565b7f4552433732313a20696e76616c696420746f6b656e2049440000000000000000600082015250565b6000612b42601883612199565b9150612b4d82612b0c565b602082019050919050565b60006020820190508181036000830152612b7181612b35565b9050919050565b7f4552433732313a2061646472657373207a65726f206973206e6f74206120766160008201527f6c6964206f776e65720000000000000000000000000000000000000000000000602082015250565b6000612bd4602983612199565b9150612bdf82612b78565b604082019050919050565b60006020820190508181036000830152612c0381612bc7565b9050919050565b600081905092915050565b6000612c208261218e565b612c2a8185612c0a565b9350612c3a8185602086016121aa565b80840191505092915050565b7f2e6a736f6e000000000000000000000000000000000000000000000000000000600082015250565b6000612c7c600583612c0a565b9150612c8782612c46565b600582019050919050565b6000612c9e8285612c15565b9150612caa8284612c15565b9150612cb582612c6f565b91508190509392505050565b7f4f776e61626c653a206e6577206f776e657220697320746865207a65726f206160008201527f6464726573730000000000000000000000000000000000000000000000000000602082015250565b6000612d1d602683612199565b9150612d2882612cc1565b604082019050919050565b60006020820190508181036000830152612d4c81612d10565b9050919050565b7f4552433732313a207472616e736665722066726f6d20696e636f72726563742060008201527f6f776e6572000000000000000000000000000000000000000000000000000000602082015250565b6000612daf602583612199565b9150612dba82612d53565b604082019050919050565b60006020820190508181036000830152612dde81612da2565b9050919050565b7f4552433732313a207472616e7366657220746f20746865207a65726f2061646460008201527f7265737300000000000000000000000000000000000000000000000000000000602082015250565b6000612e41602483612199565b9150612e4c82612de5565b604082019050919050565b60006020820190508181036000830152612e7081612e34565b9050919050565b6000612e828261208b565b9150612e8d8361208b565b925082821015612ea057612e9f612940565b5b828203905092915050565b7f4f776e61626c653a2063616c6c6572206973206e6f7420746865206f776e6572600082015250565b6000612ee1602083612199565b9150612eec82612eab565b602082019050919050565b60006020820190508181036000830152612f1081612ed4565b9050919050565b7f4552433732313a20617070726f766520746f2063616c6c657200000000000000600082015250565b6000612f4d601983612199565b9150612f5882612f17565b602082019050919050565b60006020820190508181036000830152612f7c81612f40565b9050919050565b7f4552433732313a207472616e7366657220746f206e6f6e20455243373231526560008201527f63656976657220696d706c656d656e7465720000000000000000000000000000602082015250565b6000612fdf603283612199565b9150612fea82612f83565b604082019050919050565b6000602082019050818103600083015261300e81612fd2565b9050919050565b7f4e487b7100000000000000000000000000000000000000000000000000000000600052601260045260246000fd5b600061304f8261208b565b915061305a8361208b565b92508261306a57613069613015565b5b828204905092915050565b60006130808261208b565b915061308b8361208b565b92508261309b5761309a613015565b5b828206905092915050565b7f4e487b7100000000000000000000000000000000000000000000000000000000600052603260045260246000fd5b600081519050919050565b600082825260208201905092915050565b60006130fc826130d5565b61310681856130e0565b93506131168185602086016121aa565b61311f816121dd565b840191505092915050565b600060808201905061313f60008301876122d4565b61314c60208301866122d4565b6131596040830185612095565b818103606083015261316b81846130f1565b905095945050505050565b600081519050613185816120ff565b92915050565b6000602082840312156131a1576131a06120c9565b5b60006131af84828501613176565b91505092915050565b7f4552433732313a206d696e7420746f20746865207a65726f2061646472657373600082015250565b60006131ee602083612199565b91506131f9826131b8565b602082019050919050565b6000602082019050818103600083015261321d816131e1565b9050919050565b7f4552433732313a20746f6b656e20616c7265616479206d696e74656400000000600082015250565b600061325a601c83612199565b915061326582613224565b602082019050919050565b600060208201905081810360008301526132898161324d565b905091905056fea264697066735822122025688b9de18db8cee505f03b0d0590e96c83191aeb897bb1555b436faba9311164736f6c6343000809003368747470733a2f2f676174657761792e70696e6174612e636c6f75642f697066732f516d50577a4b5a4b5973786e58765951583250664e366162375934714163644e594a5a55413461436f31394c33532f",
  "devdoc": {
    "kind": "dev",
    "methods": {
      "approve(address,uint256)": {
        "details": "See {IERC721-approve}."
      },
      "balanceOf(address)": {
        "details": "See {IERC721-balanceOf}."
      },
      "getApproved(uint256)": {
        "details": "See {IERC721-getApproved}."
      },
      "isApprovedForAll(address,address)": {
        "details": "See {IERC721-isApprovedForAll}."
      },
      "name()": {
        "details": "See {IERC721Metadata-name}."
      },
      "owner()": {
        "details": "Returns the address of the current owner."
      },
      "ownerOf(uint256)": {
        "details": "See {IERC721-ownerOf}."
      },
      "renounceOwnership()": {
        "details": "Leaves the contract without owner. It will not be possible to call `onlyOwner` functions anymore. Can only be called by the current owner. NOTE: Renouncing ownership will leave the contract without an owner, thereby removing any functionality that is only available to the owner."
      },
      "safeTransferFrom(address,address,uint256)": {
        "details": "See {IERC721-safeTransferFrom}."
      },
      "safeTransferFrom(address,address,uint256,bytes)": {
        "details": "See {IERC721-safeTransferFrom}."
      },
      "setApprovalForAll(address,bool)": {
        "details": "See {IERC721-setApprovalForAll}."
      },
      "supportsInterface(bytes4)": {
        "details": "See {IERC165-supportsInterface}."
      },
      "symbol()": {
        "details": "See {IERC721Metadata-symbol}."
      },
      "transferFrom(address,address,uint256)": {
        "details": "See {IERC721-transferFrom}."
      },
      "transferOwnership(address)": {
        "details": "Transfers ownership of the contract to a new account (`newOwner`). Can only be called by the current owner."
      }
    },
    "version": 1
  },
  "userdoc": {
    "kind": "user",
    "methods": {},
    "version": 1
  },
  "storageLayout": {
    "storage": [
      {
        "astId": 138,
        "contract": "contracts/NFT-MINT.sol:NFT_MINT",
        "label": "_name",
        "offset": 0,
        "slot": "0",
        "type": "t_string_storage"
      },
      {
        "astId": 140,
        "contract": "contracts/NFT-MINT.sol:NFT_MINT",
        "label": "_symbol",
        "offset": 0,
        "slot": "1",
        "type": "t_string_storage"
      },
      {
        "astId": 144,
        "contract": "contracts/NFT-MINT.sol:NFT_MINT",
        "label": "_owners",
        "offset": 0,
        "slot": "2",
        "type": "t_mapping(t_uint256,t_address)"
      },
      {
        "astId": 148,
        "contract": "contracts/NFT-MINT.sol:NFT_MINT",
        "label": "_balances",
        "offset": 0,
        "slot": "3",
        "type": "t_mapping(t_address,t_uint256)"
      },
      {
        "astId": 152,
        "contract": "contracts/NFT-MINT.sol:NFT_MINT",
        "label": "_tokenApprovals",
        "offset": 0,
        "slot": "4",
        "type": "t_mapping(t_uint256,t_address)"
      },
      {
        "astId": 158,
        "contract": "contracts/NFT-MINT.sol:NFT_MINT",
        "label": "_operatorApprovals",
        "offset": 0,
        "slot": "5",
        "type": "t_mapping(t_address,t_mapping(t_address,t_bool))"
      },
      {
        "astId": 7,
        "contract": "contracts/NFT-MINT.sol:NFT_MINT",
        "label": "_owner",
        "offset": 0,
        "slot": "6",
        "type": "t_address"
      },
      {
        "astId": 1736,
        "contract": "contracts/NFT-MINT.sol:NFT_MINT",
        "label": "_numTokens",
        "offset": 0,
        "slot": "7",
        "type": "t_uint256"
      },
      {
        "astId": 1740,
        "contract": "contracts/NFT-MINT.sol:NFT_MINT",
        "label": "verified",
        "offset": 0,
        "slot": "8",
        "type": "t_mapping(t_address,t_bool)"
      },
      {
        "astId": 1743,
        "contract": "contracts/NFT-MINT.sol:NFT_MINT",
        "label": "isSaleActive",
        "offset": 0,
        "slot": "9",
        "type": "t_bool"
      },
      {
        "astId": 1745,
        "contract": "contracts/NFT-MINT.sol:NFT_MINT",
        "label": "totalSupply",
        "offset": 0,
        "slot": "10",
        "type": "t_uint256"
      },
      {
        "astId": 1749,
        "contract": "contracts/NFT-MINT.sol:NFT_MINT",
        "label": "mintedPerWallet",
        "offset": 0,
        "slot": "11",
        "type": "t_mapping(t_address,t_uint256)"
      },
      {
        "astId": 1751,
        "contract": "contracts/NFT-MINT.sol:NFT_MINT",
        "label": "baseUri",
        "offset": 0,
        "slot": "12",
        "type": "t_string_storage"
      },
      {
        "astId": 1753,
        "contract": "contracts/NFT-MINT.sol:NFT_MINT",
        "label": "chk",
        "offset": 0,
        "slot": "13",
        "type": "t_uint256"
      },
      {
        "astId": 1756,
        "contract": "contracts/NFT-MINT.sol:NFT_MINT",
        "label": "cp",
        "offset": 0,
        "slot": "14",
        "type": "t_uint256"
      },
      {
        "astId": 1758,
        "contract": "contracts/NFT-MINT.sol:NFT_MINT",
        "label": "tokenId",
        "offset": 0,
        "slot": "15",
        "type": "t_uint256"
      }
    ],
    "types": {
      "t_address": {
        "encoding": "inplace",
        "label": "address",
        "numberOfBytes": "20"
      },
      "t_bool": {
        "encoding": "inplace",
        "label": "bool",
        "numberOfBytes": "1"
      },
      "t_mapping(t_address,t_bool)": {
        "encoding": "mapping",
        "key": "t_address",
        "label": "mapping(address => bool)",
        "numberOfBytes": "32",
        "value": "t_bool"
      },
      "t_mapping(t_address,t_mapping(t_address,t_bool))": {
        "encoding": "mapping",
        "key": "t_address",
        "label": "mapping(address => mapping(address => bool))",
        "numberOfBytes": "32",
        "value": "t_mapping(t_address,t_bool)"
      },
      "t_mapping(t_address,t_uint256)": {
        "encoding": "mapping",
        "key": "t_address",
        "label": "mapping(address => uint256)",
        "numberOfBytes": "32",
        "value": "t_uint256"
      },
      "t_mapping(t_uint256,t_address)": {
        "encoding": "mapping",
        "key": "t_uint256",
        "label": "mapping(uint256 => address)",
        "numberOfBytes": "32",
        "value": "t_address"
      },
      "t_string_storage": {
        "encoding": "bytes",
        "label": "string",
        "numberOfBytes": "32"
      },
      "t_uint256": {
        "encoding": "inplace",
        "label": "uint256",
        "numberOfBytes": "32"
      }
    }
  }
}