{
  "_format": "hh-sol-artifact-1",
  "contractName": "NFT_MINT",
  "sourceName": "contracts/NFT-MINT.sol",
  "abi": [
    {
      "inputs": [
        {
          "internalType": "string",
          "name": "_restricted",
          "type": "string"
        }
      ],
      "stateMutability": "nonpayable",
      "type": "constructor"
    },
    {
      "anonymous": false,
      "inputs": [
        {
          "indexed": true,
          "internalType": "address",
          "name": "owner",
          "type": "address"
        },
        {
          "indexed": true,
          "internalType": "address",
          "name": "approved",
          "type": "address"
        },
        {
          "indexed": true,
          "internalType": "uint256",
          "name": "tokenId",
          "type": "uint256"
        }
      ],
      "name": "Approval",
      "type": "event"
    },
    {
      "anonymous": false,
      "inputs": [
        {
          "indexed": true,
          "internalType": "address",
          "name": "owner",
          "type": "address"
        },
        {
          "indexed": true,
          "internalType": "address",
          "name": "operator",
          "type": "address"
        },
        {
          "indexed": false,
          "internalType": "bool",
          "name": "approved",
          "type": "bool"
        }
      ],
      "name": "ApprovalForAll",
      "type": "event"
    },
    {
      "anonymous": false,
      "inputs": [
        {
          "indexed": true,
          "internalType": "address",
          "name": "previousOwner",
          "type": "address"
        },
        {
          "indexed": true,
          "internalType": "address",
          "name": "newOwner",
          "type": "address"
        }
      ],
      "name": "OwnershipTransferred",
      "type": "event"
    },
    {
      "anonymous": false,
      "inputs": [
        {
          "indexed": true,
          "internalType": "address",
          "name": "from",
          "type": "address"
        },
        {
          "indexed": true,
          "internalType": "address",
          "name": "to",
          "type": "address"
        },
        {
          "indexed": true,
          "internalType": "uint256",
          "name": "tokenId",
          "type": "uint256"
        }
      ],
      "name": "Transfer",
      "type": "event"
    },
    {
      "inputs": [],
      "name": "MAX_TOKENS",
      "outputs": [
        {
          "internalType": "uint256",
          "name": "",
          "type": "uint256"
        }
      ],
      "stateMutability": "view",
      "type": "function"
    },
    {
      "inputs": [
        {
          "internalType": "address",
          "name": "nft_owner",
          "type": "address"
        }
      ],
      "name": "Verifier",
      "outputs": [
        {
          "internalType": "uint256",
          "name": "",
          "type": "uint256"
        },
        {
          "internalType": "bool",
          "name": "",
          "type": "bool"
        }
      ],
      "stateMutability": "view",
      "type": "function"
    },
    {
      "inputs": [
        {
          "internalType": "address",
          "name": "to",
          "type": "address"
        },
        {
          "internalType": "uint256",
          "name": "tokenId",
          "type": "uint256"
        }
      ],
      "name": "approve",
      "outputs": [],
      "stateMutability": "nonpayable",
      "type": "function"
    },
    {
      "inputs": [
        {
          "internalType": "address",
          "name": "owner",
          "type": "address"
        }
      ],
      "name": "balanceOf",
      "outputs": [
        {
          "internalType": "uint256",
          "name": "",
          "type": "uint256"
        }
      ],
      "stateMutability": "view",
      "type": "function"
    },
    {
      "inputs": [],
      "name": "baseUri",
      "outputs": [
        {
          "internalType": "string",
          "name": "",
          "type": "string"
        }
      ],
      "stateMutability": "view",
      "type": "function"
    },
    {
      "inputs": [
        {
          "internalType": "uint256",
          "name": "tokenId",
          "type": "uint256"
        }
      ],
      "name": "getApproved",
      "outputs": [
        {
          "internalType": "address",
          "name": "",
          "type": "address"
        }
      ],
      "stateMutability": "view",
      "type": "function"
    },
    {
      "inputs": [],
      "name": "getTokenId",
      "outputs": [
        {
          "internalType": "uint256",
          "name": "",
          "type": "uint256"
        }
      ],
      "stateMutability": "view",
      "type": "function"
    },
    {
      "inputs": [],
      "name": "getTotalSupply",
      "outputs": [
        {
          "internalType": "uint256",
          "name": "",
          "type": "uint256"
        }
      ],
      "stateMutability": "view",
      "type": "function"
    },
    {
      "inputs": [],
      "name": "getVerifiedstatus",
      "outputs": [
        {
          "internalType": "bool",
          "name": "",
          "type": "bool"
        }
      ],
      "stateMutability": "view",
      "type": "function"
    },
    {
      "inputs": [],
      "name": "getchk",
      "outputs": [
        {
          "internalType": "uint256",
          "name": "",
          "type": "uint256"
        }
      ],
      "stateMutability": "view",
      "type": "function"
    },
    {
      "inputs": [
        {
          "internalType": "address",
          "name": "owner",
          "type": "address"
        },
        {
          "internalType": "address",
          "name": "operator",
          "type": "address"
        }
      ],
      "name": "isApprovedForAll",
      "outputs": [
        {
          "internalType": "bool",
          "name": "",
          "type": "bool"
        }
      ],
      "stateMutability": "view",
      "type": "function"
    },
    {
      "inputs": [],
      "name": "isSaleActive",
      "outputs": [
        {
          "internalType": "bool",
          "name": "",
          "type": "bool"
        }
      ],
      "stateMutability": "view",
      "type": "function"
    },
    {
      "inputs": [
        {
          "internalType": "string",
          "name": "pvtaccess",
          "type": "string"
        }
      ],
      "name": "mint",
      "outputs": [
        {
          "internalType": "uint256",
          "name": "",
          "type": "uint256"
        }
      ],
      "stateMutability": "payable",
      "type": "function"
    },
    {
      "inputs": [],
      "name": "name",
      "outputs": [
        {
          "internalType": "string",
          "name": "",
          "type": "string"
        }
      ],
      "stateMutability": "view",
      "type": "function"
    },
    {
      "inputs": [],
      "name": "owner",
      "outputs": [
        {
          "internalType": "address",
          "name": "",
          "type": "address"
        }
      ],
      "stateMutability": "view",
      "type": "function"
    },
    {
      "inputs": [
        {
          "internalType": "uint256",
          "name": "tokenId",
          "type": "uint256"
        }
      ],
      "name": "ownerOf",
      "outputs": [
        {
          "internalType": "address",
          "name": "",
          "type": "address"
        }
      ],
      "stateMutability": "view",
      "type": "function"
    },
    {
      "inputs": [],
      "name": "renounceOwnership",
      "outputs": [],
      "stateMutability": "nonpayable",
      "type": "function"
    },
    {
      "inputs": [
        {
          "internalType": "address",
          "name": "from",
          "type": "address"
        },
        {
          "internalType": "address",
          "name": "to",
          "type": "address"
        },
        {
          "internalType": "uint256",
          "name": "tId",
          "type": "uint256"
        }
      ],
      "name": "safeTransferFrom",
      "outputs": [],
      "stateMutability": "nonpayable",
      "type": "function"
    },
    {
      "inputs": [
        {
          "internalType": "address",
          "name": "from",
          "type": "address"
        },
        {
          "internalType": "address",
          "name": "to",
          "type": "address"
        },
        {
          "internalType": "uint256",
          "name": "tokenId",
          "type": "uint256"
        },
        {
          "internalType": "bytes",
          "name": "data",
          "type": "bytes"
        }
      ],
      "name": "safeTransferFrom",
      "outputs": [],
      "stateMutability": "nonpayable",
      "type": "function"
    },
    {
      "inputs": [
        {
          "internalType": "address",
          "name": "operator",
          "type": "address"
        },
        {
          "internalType": "bool",
          "name": "approved",
          "type": "bool"
        }
      ],
      "name": "setApprovalForAll",
      "outputs": [],
      "stateMutability": "nonpayable",
      "type": "function"
    },
    {
      "inputs": [
        {
          "internalType": "bytes4",
          "name": "interfaceId",
          "type": "bytes4"
        }
      ],
      "name": "supportsInterface",
      "outputs": [
        {
          "internalType": "bool",
          "name": "",
          "type": "bool"
        }
      ],
      "stateMutability": "view",
      "type": "function"
    },
    {
      "inputs": [],
      "name": "symbol",
      "outputs": [
        {
          "internalType": "string",
          "name": "",
          "type": "string"
        }
      ],
      "stateMutability": "view",
      "type": "function"
    },
    {
      "inputs": [],
      "name": "tokenId",
      "outputs": [
        {
          "internalType": "uint256",
          "name": "",
          "type": "uint256"
        }
      ],
      "stateMutability": "view",
      "type": "function"
    },
    {
      "inputs": [
        {
          "internalType": "uint256",
          "name": "tkenId",
          "type": "uint256"
        }
      ],
      "name": "tokenURI",
      "outputs": [
        {
          "internalType": "string",
          "name": "",
          "type": "string"
        }
      ],
      "stateMutability": "view",
      "type": "function"
    },
    {
      "inputs": [],
      "name": "totalSupply",
      "outputs": [
        {
          "internalType": "uint256",
          "name": "",
          "type": "uint256"
        }
      ],
      "stateMutability": "view",
      "type": "function"
    },
    {
      "inputs": [
        {
          "internalType": "address",
          "name": "from",
          "type": "address"
        },
        {
          "internalType": "address",
          "name": "to",
          "type": "address"
        },
        {
          "internalType": "uint256",
          "name": "tId",
          "type": "uint256"
        }
      ],
      "name": "transferFrom",
      "outputs": [],
      "stateMutability": "nonpayable",
      "type": "function"
    },
    {
      "inputs": [
        {
          "internalType": "address",
          "name": "newOwner",
          "type": "address"
        }
      ],
      "name": "transferOwnership",
      "outputs": [],
      "stateMutability": "nonpayable",
      "type": "function"
    }
  ],
  "bytecode": "0x608060405260006007556001600960006101000a81548160ff0219169083151502179055506001600c556000600f553480156200003b57600080fd5b5060405162003c2238038062003c228339818101604052810190620000619190620004a6565b6040518060400160405280600681526020017f442d4155544800000000000000000000000000000000000000000000000000008152506040518060400160405280600381526020017f44415500000000000000000000000000000000000000000000000000000000008152508160009080519060200190620000e592919062000259565b508060019080519060200190620000fe92919062000259565b50505062000121620001156200018b60201b60201c565b6200019360201b60201c565b60405180608001604052806051815260200162003bd160519139600d90805190602001906200015292919062000259565b5060006010819055506000600a819055506000600e8190555080601190805190602001906200018392919062000259565b50506200055c565b600033905090565b6000600660009054906101000a900473ffffffffffffffffffffffffffffffffffffffff16905081600660006101000a81548173ffffffffffffffffffffffffffffffffffffffff021916908373ffffffffffffffffffffffffffffffffffffffff1602179055508173ffffffffffffffffffffffffffffffffffffffff168173ffffffffffffffffffffffffffffffffffffffff167f8be0079c531659141344cd1fd0a4f28419497f9722a3daafe3b4186f6b6457e060405160405180910390a35050565b828054620002679062000526565b90600052602060002090601f0160209004810192826200028b5760008555620002d7565b82601f10620002a657805160ff1916838001178555620002d7565b82800160010185558215620002d7579182015b82811115620002d6578251825591602001919060010190620002b9565b5b509050620002e69190620002ea565b5090565b5b8082111562000305576000816000905550600101620002eb565b5090565b6000604051905090565b600080fd5b600080fd5b600080fd5b600080fd5b6000601f19601f8301169050919050565b7f4e487b7100000000000000000000000000000000000000000000000000000000600052604160045260246000fd5b620003728262000327565b810181811067ffffffffffffffff8211171562000394576200039362000338565b5b80604052505050565b6000620003a962000309565b9050620003b7828262000367565b919050565b600067ffffffffffffffff821115620003da57620003d962000338565b5b620003e58262000327565b9050602081019050919050565b60005b8381101562000412578082015181840152602081019050620003f5565b8381111562000422576000848401525b50505050565b60006200043f6200043984620003bc565b6200039d565b9050828152602081018484840111156200045e576200045d62000322565b5b6200046b848285620003f2565b509392505050565b600082601f8301126200048b576200048a6200031d565b5b81516200049d84826020860162000428565b91505092915050565b600060208284031215620004bf57620004be62000313565b5b600082015167ffffffffffffffff811115620004e057620004df62000318565b5b620004ee8482850162000473565b91505092915050565b7f4e487b7100000000000000000000000000000000000000000000000000000000600052602260045260246000fd5b600060028204905060018216806200053f57607f821691505b60208210811415620005565762000555620004f7565b5b50919050565b613665806200056c6000396000f3fe60806040526004361061019c5760003560e01c806370a08231116100ec578063c4e41b221161008a578063d85d3d2711610064578063d85d3d27146105cd578063e985e9c5146105fd578063f2fde38b1461063a578063f47c84c5146106635761019c565b8063c4e41b221461053a578063c7f78feb14610565578063c87b56dd146105905761019c565b806395d89b41116100c657806395d89b41146104925780639abc8320146104bd578063a22cb465146104e8578063b88d4fde146105115761019c565b806370a0823114610413578063715018a6146104505780638da5cb5b146104675761019c565b806318160ddd116101595780635183c050116101335780635183c05014610342578063564566a8146103805780636352211e146103ab5780636e9ea4bb146103e85761019c565b806318160ddd146102c557806323b872dd146102f057806342842e0e146103195761019c565b8063010a38f5146101a157806301ffc9a7146101cc57806306fdde0314610209578063081812fc14610234578063095ea7b31461027157806317d70f7c1461029a575b600080fd5b3480156101ad57600080fd5b506101b661068e565b6040516101c39190612359565b60405180910390f35b3480156101d857600080fd5b506101f360048036038101906101ee91906123e0565b610698565b6040516102009190612428565b60405180910390f35b34801561021557600080fd5b5061021e61077a565b60405161022b91906124dc565b60405180910390f35b34801561024057600080fd5b5061025b6004803603810190610256919061252a565b61080c565b6040516102689190612598565b60405180910390f35b34801561027d57600080fd5b50610298600480360381019061029391906125df565b610852565b005b3480156102a657600080fd5b506102af61096a565b6040516102bc9190612359565b60405180910390f35b3480156102d157600080fd5b506102da610970565b6040516102e79190612359565b60405180910390f35b3480156102fc57600080fd5b506103176004803603810190610312919061261f565b610976565b005b34801561032557600080fd5b50610340600480360381019061033b919061261f565b6109e0565b005b34801561034e57600080fd5b5061036960048036038101906103649190612672565b610a08565b60405161037792919061269f565b60405180910390f35b34801561038c57600080fd5b50610395610aac565b6040516103a29190612428565b60405180910390f35b3480156103b757600080fd5b506103d260048036038101906103cd919061252a565b610abf565b6040516103df9190612598565b60405180910390f35b3480156103f457600080fd5b506103fd610b71565b60405161040a9190612428565b60405180910390f35b34801561041f57600080fd5b5061043a60048036038101906104359190612672565b610bc5565b6040516104479190612359565b60405180910390f35b34801561045c57600080fd5b50610465610c7d565b005b34801561047357600080fd5b5061047c610c91565b6040516104899190612598565b60405180910390f35b34801561049e57600080fd5b506104a7610cbb565b6040516104b491906124dc565b60405180910390f35b3480156104c957600080fd5b506104d2610d4d565b6040516104df91906124dc565b60405180910390f35b3480156104f457600080fd5b5061050f600480360381019061050a91906126f4565b610ddb565b005b34801561051d57600080fd5b5061053860048036038101906105339190612869565b610df1565b005b34801561054657600080fd5b5061054f610e53565b60405161055c9190612359565b60405180910390f35b34801561057157600080fd5b5061057a610e5d565b6040516105879190612359565b60405180910390f35b34801561059c57600080fd5b506105b760048036038101906105b2919061252a565b610e67565b6040516105c491906124dc565b60405180910390f35b6105e760048036038101906105e2919061298d565b610ed1565b6040516105f49190612359565b60405180910390f35b34801561060957600080fd5b50610624600480360381019061061f91906129d6565b61123b565b6040516106319190612428565b60405180910390f35b34801561064657600080fd5b50610661600480360381019061065c9190612672565b6112cf565b005b34801561066f57600080fd5b50610678611353565b6040516106859190612359565b60405180910390f35b6000601054905090565b60007f80ac58cd000000000000000000000000000000000000000000000000000000007bffffffffffffffffffffffffffffffffffffffffffffffffffffffff1916827bffffffffffffffffffffffffffffffffffffffffffffffffffffffff1916148061076357507f5b5e139f000000000000000000000000000000000000000000000000000000007bffffffffffffffffffffffffffffffffffffffffffffffffffffffff1916827bffffffffffffffffffffffffffffffffffffffffffffffffffffffff1916145b80610773575061077282611359565b5b9050919050565b60606000805461078990612a45565b80601f01602080910402602001604051908101604052809291908181526020018280546107b590612a45565b80156108025780601f106107d757610100808354040283529160200191610802565b820191906000526020600020905b8154815290600101906020018083116107e557829003601f168201915b5050505050905090565b6000610817826113c3565b6004600083815260200190815260200160002060009054906101000a900473ffffffffffffffffffffffffffffffffffffffff169050919050565b600061085d82610abf565b90508073ffffffffffffffffffffffffffffffffffffffff168373ffffffffffffffffffffffffffffffffffffffff1614156108ce576040517f08c379a00000000000000000000000000000000000000000000000000000000081526004016108c590612ae9565b60405180910390fd5b8073ffffffffffffffffffffffffffffffffffffffff166108ed61140e565b73ffffffffffffffffffffffffffffffffffffffff16148061091c575061091b8161091661140e565b61123b565b5b61095b576040517f08c379a000000000000000000000000000000000000000000000000000000000815260040161095290612b7b565b60405180910390fd5b6109658383611416565b505050565b60105481565b600a5481565b61097e6114cf565b61099161098961140e565b60105461154d565b6109d0576040517f08c379a00000000000000000000000000000000000000000000000000000000081526004016109c790612c0d565b60405180910390fd5b6109db8383836115e2565b505050565b6109e86114cf565b610a0383838360405180602001604052806000815250610df1565b505050565b6000806000806000905060005b600a548111158015610a285750600a5482105b15610a9c578180610a3890612c5c565b925050610a4482610abf565b92508273ffffffffffffffffffffffffffffffffffffffff168673ffffffffffffffffffffffffffffffffffffffff161415610a895781600194509450505050610aa7565b8080610a9490612c5c565b915050610a15565b600080945094505050505b915091565b600960009054906101000a900460ff1681565b6000806002600084815260200190815260200160002060009054906101000a900473ffffffffffffffffffffffffffffffffffffffff169050600073ffffffffffffffffffffffffffffffffffffffff168173ffffffffffffffffffffffffffffffffffffffff161415610b68576040517f08c379a0000000000000000000000000000000000000000000000000000000008152600401610b5f90612cf1565b60405180910390fd5b80915050919050565b6000600860003373ffffffffffffffffffffffffffffffffffffffff1673ffffffffffffffffffffffffffffffffffffffff16815260200190815260200160002060009054906101000a900460ff16905090565b60008073ffffffffffffffffffffffffffffffffffffffff168273ffffffffffffffffffffffffffffffffffffffff161415610c36576040517f08c379a0000000000000000000000000000000000000000000000000000000008152600401610c2d90612d83565b60405180910390fd5b600360008373ffffffffffffffffffffffffffffffffffffffff1673ffffffffffffffffffffffffffffffffffffffff168152602001908152602001600020549050919050565b610c856114cf565b610c8f6000611849565b565b6000600660009054906101000a900473ffffffffffffffffffffffffffffffffffffffff16905090565b606060018054610cca90612a45565b80601f0160208091040260200160405190810160405280929190818152602001828054610cf690612a45565b8015610d435780601f10610d1857610100808354040283529160200191610d43565b820191906000526020600020905b815481529060010190602001808311610d2657829003601f168201915b5050505050905090565b600d8054610d5a90612a45565b80601f0160208091040260200160405190810160405280929190818152602001828054610d8690612a45565b8015610dd35780601f10610da857610100808354040283529160200191610dd3565b820191906000526020600020905b815481529060010190602001808311610db657829003601f168201915b505050505081565b610ded610de661140e565b838361190f565b5050565b610e02610dfc61140e565b8361154d565b610e41576040517f08c379a0000000000000000000000000000000000000000000000000000000008152600401610e3890612c0d565b60405180910390fd5b610e4d84848484611a7c565b50505050565b6000600a54905090565b6000600e54905090565b6060610e72826113c3565b6000610e7c611ad8565b90506000815111610e9c5760405180602001604052806000815250610ec9565b80610ea8601054611b6a565b604051602001610eb9929190612e2b565b6040516020818303038152906040525b915050919050565b6000600860003373ffffffffffffffffffffffffffffffffffffffff1673ffffffffffffffffffffffffffffffffffffffff16815260200190815260200160002060009054906101000a900460ff1615610f60576040517f08c379a0000000000000000000000000000000000000000000000000000000008152600401610f5790612ea6565b60405180910390fd5b600960009054906101000a900460ff16610faf576040517f08c379a0000000000000000000000000000000000000000000000000000000008152600401610fa690612f12565b60405180910390fd5b6000600b60003373ffffffffffffffffffffffffffffffffffffffff1673ffffffffffffffffffffffffffffffffffffffff1681526020019081526020016000205414611031576040517f08c379a000000000000000000000000000000000000000000000000000000000815260040161102890612f7e565b60405180910390fd5b6110c5826011805461104290612a45565b80601f016020809104026020016040519081016040528092919081815260200182805461106e90612a45565b80156110bb5780601f10611090576101008083540402835291602001916110bb565b820191906000526020600020905b81548152906001019060200180831161109e57829003601f168201915b5050505050611ccb565b6110ce57600080fd5b6000600a549050612710600754826110e69190612f9e565b1115611127576040517f08c379a000000000000000000000000000000000000000000000000000000000815260040161111e90613040565b60405180910390fd5b60016010546111369190612f9e565b60108190555061114833601054611ce1565b6007600081548092919061115b90612c5c565b9190505550600754600b60003373ffffffffffffffffffffffffffffffffffffffff1673ffffffffffffffffffffffffffffffffffffffff16815260200190815260200160002060008282546111b19190612f9e565b92505081905550600a60008154809291906111cb90612c5c565b91905055506001600f819055506001600860003373ffffffffffffffffffffffffffffffffffffffff1673ffffffffffffffffffffffffffffffffffffffff16815260200190815260200160002060006101000a81548160ff021916908315150217905550601054915050919050565b6000600560008473ffffffffffffffffffffffffffffffffffffffff1673ffffffffffffffffffffffffffffffffffffffff16815260200190815260200160002060008373ffffffffffffffffffffffffffffffffffffffff1673ffffffffffffffffffffffffffffffffffffffff16815260200190815260200160002060009054906101000a900460ff16905092915050565b6112d76114cf565b600073ffffffffffffffffffffffffffffffffffffffff168173ffffffffffffffffffffffffffffffffffffffff161415611347576040517f08c379a000000000000000000000000000000000000000000000000000000000815260040161133e906130d2565b60405180910390fd5b61135081611849565b50565b61271081565b60007f01ffc9a7000000000000000000000000000000000000000000000000000000007bffffffffffffffffffffffffffffffffffffffffffffffffffffffff1916827bffffffffffffffffffffffffffffffffffffffffffffffffffffffff1916149050919050565b6113cc81611cff565b61140b576040517f08c379a000000000000000000000000000000000000000000000000000000000815260040161140290612cf1565b60405180910390fd5b50565b600033905090565b816004600083815260200190815260200160002060006101000a81548173ffffffffffffffffffffffffffffffffffffffff021916908373ffffffffffffffffffffffffffffffffffffffff160217905550808273ffffffffffffffffffffffffffffffffffffffff1661148983610abf565b73ffffffffffffffffffffffffffffffffffffffff167f8c5be1e5ebec7d5bd14f71427d1e84f3dd0314c0f7b2291e5b200ac8c7c3b92560405160405180910390a45050565b6114d761140e565b73ffffffffffffffffffffffffffffffffffffffff166114f5610c91565b73ffffffffffffffffffffffffffffffffffffffff161461154b576040517f08c379a00000000000000000000000000000000000000000000000000000000081526004016115429061313e565b60405180910390fd5b565b60008061155983610abf565b90508073ffffffffffffffffffffffffffffffffffffffff168473ffffffffffffffffffffffffffffffffffffffff16148061159b575061159a818561123b565b5b806115d957508373ffffffffffffffffffffffffffffffffffffffff166115c18461080c565b73ffffffffffffffffffffffffffffffffffffffff16145b91505092915050565b8273ffffffffffffffffffffffffffffffffffffffff1661160282610abf565b73ffffffffffffffffffffffffffffffffffffffff1614611658576040517f08c379a000000000000000000000000000000000000000000000000000000000815260040161164f906131d0565b60405180910390fd5b600073ffffffffffffffffffffffffffffffffffffffff168273ffffffffffffffffffffffffffffffffffffffff1614156116c8576040517f08c379a00000000000000000000000000000000000000000000000000000000081526004016116bf90613262565b60405180910390fd5b6116d3838383611d6b565b6116de600082611416565b6001600360008573ffffffffffffffffffffffffffffffffffffffff1673ffffffffffffffffffffffffffffffffffffffff168152602001908152602001600020600082825461172e9190613282565b925050819055506001600360008473ffffffffffffffffffffffffffffffffffffffff1673ffffffffffffffffffffffffffffffffffffffff16815260200190815260200160002060008282546117859190612f9e565b92505081905550816002600083815260200190815260200160002060006101000a81548173ffffffffffffffffffffffffffffffffffffffff021916908373ffffffffffffffffffffffffffffffffffffffff160217905550808273ffffffffffffffffffffffffffffffffffffffff168473ffffffffffffffffffffffffffffffffffffffff167fddf252ad1be2c89b69c2b068fc378daa952ba7f163c4a11628f55a4df523b3ef60405160405180910390a4611844838383611d70565b505050565b6000600660009054906101000a900473ffffffffffffffffffffffffffffffffffffffff16905081600660006101000a81548173ffffffffffffffffffffffffffffffffffffffff021916908373ffffffffffffffffffffffffffffffffffffffff1602179055508173ffffffffffffffffffffffffffffffffffffffff168173ffffffffffffffffffffffffffffffffffffffff167f8be0079c531659141344cd1fd0a4f28419497f9722a3daafe3b4186f6b6457e060405160405180910390a35050565b8173ffffffffffffffffffffffffffffffffffffffff168373ffffffffffffffffffffffffffffffffffffffff16141561197e576040517f08c379a000000000000000000000000000000000000000000000000000000000815260040161197590613302565b60405180910390fd5b80600560008573ffffffffffffffffffffffffffffffffffffffff1673ffffffffffffffffffffffffffffffffffffffff16815260200190815260200160002060008473ffffffffffffffffffffffffffffffffffffffff1673ffffffffffffffffffffffffffffffffffffffff16815260200190815260200160002060006101000a81548160ff0219169083151502179055508173ffffffffffffffffffffffffffffffffffffffff168373ffffffffffffffffffffffffffffffffffffffff167f17307eab39ab6107e8899845ad3d59bd9653f200f220920489ca2b5937696c3183604051611a6f9190612428565b60405180910390a3505050565b611a878484846115e2565b611a9384848484611d75565b611ad2576040517f08c379a0000000000000000000000000000000000000000000000000000000008152600401611ac990613394565b60405180910390fd5b50505050565b6060600d8054611ae790612a45565b80601f0160208091040260200160405190810160405280929190818152602001828054611b1390612a45565b8015611b605780601f10611b3557610100808354040283529160200191611b60565b820191906000526020600020905b815481529060010190602001808311611b4357829003601f168201915b5050505050905090565b60606000821415611bb2576040518060400160405280600181526020017f30000000000000000000000000000000000000000000000000000000000000008152509050611cc6565b600082905060005b60008214611be4578080611bcd90612c5c565b915050600a82611bdd91906133e3565b9150611bba565b60008167ffffffffffffffff811115611c0057611bff61273e565b5b6040519080825280601f01601f191660200182016040528015611c325781602001600182028036833780820191505090505b5090505b60008514611cbf57600182611c4b9190613282565b9150600a85611c5a9190613414565b6030611c669190612f9e565b60f81b818381518110611c7c57611c7b613445565b5b60200101907effffffffffffffffffffffffffffffffffffffffffffffffffffffffffffff1916908160001a905350600a85611cb891906133e3565b9450611c36565b8093505050505b919050565b600080611cd88484611f0c565b14905092915050565b611cfb8282604051806020016040528060008152506120e8565b5050565b60008073ffffffffffffffffffffffffffffffffffffffff166002600084815260200190815260200160002060009054906101000a900473ffffffffffffffffffffffffffffffffffffffff1673ffffffffffffffffffffffffffffffffffffffff1614159050919050565b505050565b505050565b6000611d968473ffffffffffffffffffffffffffffffffffffffff16612143565b15611eff578373ffffffffffffffffffffffffffffffffffffffff1663150b7a02611dbf61140e565b8786866040518563ffffffff1660e01b8152600401611de194939291906134c9565b602060405180830381600087803b158015611dfb57600080fd5b505af1925050508015611e2c57506040513d601f19601f82011682018060405250810190611e29919061352a565b60015b611eaf573d8060008114611e5c576040519150601f19603f3d011682016040523d82523d6000602084013e611e61565b606091505b50600081511415611ea7576040517f08c379a0000000000000000000000000000000000000000000000000000000008152600401611e9e90613394565b60405180910390fd5b805181602001fd5b63150b7a0260e01b7bffffffffffffffffffffffffffffffffffffffffffffffffffffffff1916817bffffffffffffffffffffffffffffffffffffffffffffffffffffffff191614915050611f04565b600190505b949350505050565b60008083905060008390506000825190508082511015611f2b57815190505b60005b8181101561208e57828181518110611f4957611f48613445565b5b602001015160f81c60f81b7effffffffffffffffffffffffffffffffffffffffffffffffffffffffffffff1916848281518110611f8957611f88613445565b5b602001015160f81c60f81b7effffffffffffffffffffffffffffffffffffffffffffffffffffffffffffff19161015611fe8577fffffffffffffffffffffffffffffffffffffffffffffffffffffffffffffffff9450505050506120e2565b828181518110611ffb57611ffa613445565b5b602001015160f81c60f81b7effffffffffffffffffffffffffffffffffffffffffffffffffffffffffffff191684828151811061203b5761203a613445565b5b602001015160f81c60f81b7effffffffffffffffffffffffffffffffffffffffffffffffffffffffffffff1916111561207b5760019450505050506120e2565b808061208690612c5c565b915050611f2e565b508151835110156120c4577fffffffffffffffffffffffffffffffffffffffffffffffffffffffffffffffff93505050506120e2565b8151835111156120da57600193505050506120e2565b600093505050505b92915050565b6120f28383612166565b6120ff6000848484611d75565b61213e576040517f08c379a000000000000000000000000000000000000000000000000000000000815260040161213590613394565b60405180910390fd5b505050565b6000808273ffffffffffffffffffffffffffffffffffffffff163b119050919050565b600073ffffffffffffffffffffffffffffffffffffffff168273ffffffffffffffffffffffffffffffffffffffff1614156121d6576040517f08c379a00000000000000000000000000000000000000000000000000000000081526004016121cd906135a3565b60405180910390fd5b6121df81611cff565b1561221f576040517f08c379a00000000000000000000000000000000000000000000000000000000081526004016122169061360f565b60405180910390fd5b61222b60008383611d6b565b6001600360008473ffffffffffffffffffffffffffffffffffffffff1673ffffffffffffffffffffffffffffffffffffffff168152602001908152602001600020600082825461227b9190612f9e565b92505081905550816002600083815260200190815260200160002060006101000a81548173ffffffffffffffffffffffffffffffffffffffff021916908373ffffffffffffffffffffffffffffffffffffffff160217905550808273ffffffffffffffffffffffffffffffffffffffff16600073ffffffffffffffffffffffffffffffffffffffff167fddf252ad1be2c89b69c2b068fc378daa952ba7f163c4a11628f55a4df523b3ef60405160405180910390a461233c60008383611d70565b5050565b6000819050919050565b61235381612340565b82525050565b600060208201905061236e600083018461234a565b92915050565b6000604051905090565b600080fd5b600080fd5b60007fffffffff0000000000000000000000000000000000000000000000000000000082169050919050565b6123bd81612388565b81146123c857600080fd5b50565b6000813590506123da816123b4565b92915050565b6000602082840312156123f6576123f561237e565b5b6000612404848285016123cb565b91505092915050565b60008115159050919050565b6124228161240d565b82525050565b600060208201905061243d6000830184612419565b92915050565b600081519050919050565b600082825260208201905092915050565b60005b8381101561247d578082015181840152602081019050612462565b8381111561248c576000848401525b50505050565b6000601f19601f8301169050919050565b60006124ae82612443565b6124b8818561244e565b93506124c881856020860161245f565b6124d181612492565b840191505092915050565b600060208201905081810360008301526124f681846124a3565b905092915050565b61250781612340565b811461251257600080fd5b50565b600081359050612524816124fe565b92915050565b6000602082840312156125405761253f61237e565b5b600061254e84828501612515565b91505092915050565b600073ffffffffffffffffffffffffffffffffffffffff82169050919050565b600061258282612557565b9050919050565b61259281612577565b82525050565b60006020820190506125ad6000830184612589565b92915050565b6125bc81612577565b81146125c757600080fd5b50565b6000813590506125d9816125b3565b92915050565b600080604083850312156125f6576125f561237e565b5b6000612604858286016125ca565b925050602061261585828601612515565b9150509250929050565b6000806000606084860312156126385761263761237e565b5b6000612646868287016125ca565b9350506020612657868287016125ca565b925050604061266886828701612515565b9150509250925092565b6000602082840312156126885761268761237e565b5b6000612696848285016125ca565b91505092915050565b60006040820190506126b4600083018561234a565b6126c16020830184612419565b9392505050565b6126d18161240d565b81146126dc57600080fd5b50565b6000813590506126ee816126c8565b92915050565b6000806040838503121561270b5761270a61237e565b5b6000612719858286016125ca565b925050602061272a858286016126df565b9150509250929050565b600080fd5b600080fd5b7f4e487b7100000000000000000000000000000000000000000000000000000000600052604160045260246000fd5b61277682612492565b810181811067ffffffffffffffff821117156127955761279461273e565b5b80604052505050565b60006127a8612374565b90506127b4828261276d565b919050565b600067ffffffffffffffff8211156127d4576127d361273e565b5b6127dd82612492565b9050602081019050919050565b82818337600083830152505050565b600061280c612807846127b9565b61279e565b90508281526020810184848401111561282857612827612739565b5b6128338482856127ea565b509392505050565b600082601f8301126128505761284f612734565b5b81356128608482602086016127f9565b91505092915050565b600080600080608085870312156128835761288261237e565b5b6000612891878288016125ca565b94505060206128a2878288016125ca565b93505060406128b387828801612515565b925050606085013567ffffffffffffffff8111156128d4576128d3612383565b5b6128e08782880161283b565b91505092959194509250565b600067ffffffffffffffff8211156129075761290661273e565b5b61291082612492565b9050602081019050919050565b600061293061292b846128ec565b61279e565b90508281526020810184848401111561294c5761294b612739565b5b6129578482856127ea565b509392505050565b600082601f83011261297457612973612734565b5b813561298484826020860161291d565b91505092915050565b6000602082840312156129a3576129a261237e565b5b600082013567ffffffffffffffff8111156129c1576129c0612383565b5b6129cd8482850161295f565b91505092915050565b600080604083850312156129ed576129ec61237e565b5b60006129fb858286016125ca565b9250506020612a0c858286016125ca565b9150509250929050565b7f4e487b7100000000000000000000000000000000000000000000000000000000600052602260045260246000fd5b60006002820490506001821680612a5d57607f821691505b60208210811415612a7157612a70612a16565b5b50919050565b7f4552433732313a20617070726f76616c20746f2063757272656e74206f776e6560008201527f7200000000000000000000000000000000000000000000000000000000000000602082015250565b6000612ad360218361244e565b9150612ade82612a77565b604082019050919050565b60006020820190508181036000830152612b0281612ac6565b9050919050565b7f4552433732313a20617070726f76652063616c6c6572206973206e6f7420746f60008201527f6b656e206f776e6572206e6f7220617070726f76656420666f7220616c6c0000602082015250565b6000612b65603e8361244e565b9150612b7082612b09565b604082019050919050565b60006020820190508181036000830152612b9481612b58565b9050919050565b7f4552433732313a2063616c6c6572206973206e6f7420746f6b656e206f776e6560008201527f72206e6f7220617070726f766564000000000000000000000000000000000000602082015250565b6000612bf7602e8361244e565b9150612c0282612b9b565b604082019050919050565b60006020820190508181036000830152612c2681612bea565b9050919050565b7f4e487b7100000000000000000000000000000000000000000000000000000000600052601160045260246000fd5b6000612c6782612340565b91507fffffffffffffffffffffffffffffffffffffffffffffffffffffffffffffffff821415612c9a57612c99612c2d565b5b600182019050919050565b7f4552433732313a20696e76616c696420746f6b656e2049440000000000000000600082015250565b6000612cdb60188361244e565b9150612ce682612ca5565b602082019050919050565b60006020820190508181036000830152612d0a81612cce565b9050919050565b7f4552433732313a2061646472657373207a65726f206973206e6f74206120766160008201527f6c6964206f776e65720000000000000000000000000000000000000000000000602082015250565b6000612d6d60298361244e565b9150612d7882612d11565b604082019050919050565b60006020820190508181036000830152612d9c81612d60565b9050919050565b600081905092915050565b6000612db982612443565b612dc38185612da3565b9350612dd381856020860161245f565b80840191505092915050565b7f2e6a736f6e000000000000000000000000000000000000000000000000000000600082015250565b6000612e15600583612da3565b9150612e2082612ddf565b600582019050919050565b6000612e378285612dae565b9150612e438284612dae565b9150612e4e82612e08565b91508190509392505050565b7f416c726561647920766572696669656400000000000000000000000000000000600082015250565b6000612e9060108361244e565b9150612e9b82612e5a565b602082019050919050565b60006020820190508181036000830152612ebf81612e83565b9050919050565b7f5468652073616c65206973207061757365642e00000000000000000000000000600082015250565b6000612efc60138361244e565b9150612f0782612ec6565b602082019050919050565b60006020820190508181036000830152612f2b81612eef565b9050919050565b7f596f752063616e6e6f74206d696e742074686174206d616e7920746f74616c2e600082015250565b6000612f6860208361244e565b9150612f7382612f32565b602082019050919050565b60006020820190508181036000830152612f9781612f5b565b9050919050565b6000612fa982612340565b9150612fb483612340565b9250827fffffffffffffffffffffffffffffffffffffffffffffffffffffffffffffffff03821115612fe957612fe8612c2d565b5b828201905092915050565b7f4578636565647320746f74616c20737570706c792e0000000000000000000000600082015250565b600061302a60158361244e565b915061303582612ff4565b602082019050919050565b600060208201905081810360008301526130598161301d565b9050919050565b7f4f776e61626c653a206e6577206f776e657220697320746865207a65726f206160008201527f6464726573730000000000000000000000000000000000000000000000000000602082015250565b60006130bc60268361244e565b91506130c782613060565b604082019050919050565b600060208201905081810360008301526130eb816130af565b9050919050565b7f4f776e61626c653a2063616c6c6572206973206e6f7420746865206f776e6572600082015250565b600061312860208361244e565b9150613133826130f2565b602082019050919050565b600060208201905081810360008301526131578161311b565b9050919050565b7f4552433732313a207472616e736665722066726f6d20696e636f72726563742060008201527f6f776e6572000000000000000000000000000000000000000000000000000000602082015250565b60006131ba60258361244e565b91506131c58261315e565b604082019050919050565b600060208201905081810360008301526131e9816131ad565b9050919050565b7f4552433732313a207472616e7366657220746f20746865207a65726f2061646460008201527f7265737300000000000000000000000000000000000000000000000000000000602082015250565b600061324c60248361244e565b9150613257826131f0565b604082019050919050565b6000602082019050818103600083015261327b8161323f565b9050919050565b600061328d82612340565b915061329883612340565b9250828210156132ab576132aa612c2d565b5b828203905092915050565b7f4552433732313a20617070726f766520746f2063616c6c657200000000000000600082015250565b60006132ec60198361244e565b91506132f7826132b6565b602082019050919050565b6000602082019050818103600083015261331b816132df565b9050919050565b7f4552433732313a207472616e7366657220746f206e6f6e20455243373231526560008201527f63656976657220696d706c656d656e7465720000000000000000000000000000602082015250565b600061337e60328361244e565b915061338982613322565b604082019050919050565b600060208201905081810360008301526133ad81613371565b9050919050565b7f4e487b7100000000000000000000000000000000000000000000000000000000600052601260045260246000fd5b60006133ee82612340565b91506133f983612340565b925082613409576134086133b4565b5b828204905092915050565b600061341f82612340565b915061342a83612340565b92508261343a576134396133b4565b5b828206905092915050565b7f4e487b7100000000000000000000000000000000000000000000000000000000600052603260045260246000fd5b600081519050919050565b600082825260208201905092915050565b600061349b82613474565b6134a5818561347f565b93506134b581856020860161245f565b6134be81612492565b840191505092915050565b60006080820190506134de6000830187612589565b6134eb6020830186612589565b6134f8604083018561234a565b818103606083015261350a8184613490565b905095945050505050565b600081519050613524816123b4565b92915050565b6000602082840312156135405761353f61237e565b5b600061354e84828501613515565b91505092915050565b7f4552433732313a206d696e7420746f20746865207a65726f2061646472657373600082015250565b600061358d60208361244e565b915061359882613557565b602082019050919050565b600060208201905081810360008301526135bc81613580565b9050919050565b7f4552433732313a20746f6b656e20616c7265616479206d696e74656400000000600082015250565b60006135f9601c8361244e565b9150613604826135c3565b602082019050919050565b60006020820190508181036000830152613628816135ec565b905091905056fea2646970667358221220bad9196c0761fdc4cfbef7b1a6625a046ce0d0e45f3704a185ceead3cf22bea264736f6c6343000809003368747470733a2f2f676174657761792e70696e6174612e636c6f75642f697066732f516d50577a4b5a4b5973786e58765951583250664e366162375934714163644e594a5a55413461436f31394c33532f",
  "linkReferences": {},
  "deployedLinkReferences": {}
}